S01000005072652D4C6162342E737265637D
S11300000C9434000C9451000C9451000C949B00FB
S11300100C9451000C9451000C9451000C94510018
S11300200C9451000C9451000C9451000C94510008
S11300300C9451000C9451000C9451000C945100F8
S11300400C94F3000C9451000C9451000C94510046
S11300500C9451000C94B5000C9451000C94510074
S11300600C9451000C94510011241FBECFEFD8E022
S1130070DEBFCDBF11E0A0E0B1E0EEE5F2E002C0EA
S113008005900D92A231B107D9F721E0A2E1B1E0C8
S113009001C01D92A631B207E1F70E9498000C94AA
S11300A02D010C940000ECE7F0E010828081806464
S11300B08083808180628083808187608083EAE797
S11300C0F0E01082808183608083808188688083EF
S11300D08081806480830895CF93F8948FEF8AB9E8
S11300E09FE097B9C1E0C8B914B885B9E1E6F0E07A
S11300F08081846880830E945300E8E6F0E0808178
S113010081608083EBE6F0E080818360808385B545
S1130110836085BD8091100186BDC0936E0080917F
S1130120000180931301809312017894CF91089574
S11301300E946C00FFCF1F920F920FB60F921124F2
S11301408F93189905C0809114018F5F80931401D7
S1130150199905C0809114018150809314018F91E5
S11301600F900FBE0F901F9018951F920F920FB60D
S11301700F9211248F939F93AF93BF93CF93DF93E9
S1130180EF93FF93C9E7D0E0E881AE2FAF70B0E002
S1130190A050BF4F8C9180931301E295EF70F0E073
S11301A0E050FF4F80818093120198818091140167
S11301B0891720F488B1886088B903C088B1877F23
S11301C088B9EAE7F0E0808180648083FF91EF9151
S11301D0DF91CF91BF91AF919F918F910F900FBEFF
S11301E00F901F9018951F920F920FB60F92112423
S11301F08F938091100186BD80911501813089F023
S113020018F08230D9F023C088B18870816088B931
S1130210809115018F5F80931501809114018BB932
S113022016C088B18870826088B9809115018F5F8B
S113023080931501809113018BB909C088B188702E
S1130240846088B910921501809112018BB98F9145
S11102500F900FBE0F901F901895F894FFCFDB
S113025E81CF9286CCA4A08F808488E0B1C2B0B83E
S105026EB200D8
S9030000FC
