:020000020000FC
:100000000FEF0DBF08E00EBF00E80093610004E0B1
:10001000009361000FEF0AB900E00BB90FEF07B9C9
:1000200000E008B900E004B90FEF05B91FEF40E0A8
:1000300050E003B11017E9F30E94390003B1101723
:10004000C1F3102F00FF0E943D0001FF0E944300FA
:1000500002FF0E94490003FF0E944F0004FF0E941C
:100060005500852F880F880F880F880F840F8BB954
:10007000E0CF2FEF2A95F1F708954F3011F0439517
:10008000089540E00895403011F04A9508954FE0FA
:1000900008955F3011F05395089550E00895503061
:1000A00011F05A9508955FE00895952F940F94FDEF
:0E00B00003C0449898B90895449A98B90895E9
:00000001FF
