S011000050726F796563746F322E737265638C
S11300000C9434000C9446000C9446000C94460066
S11300100C9428010C9446000C9446000C94460061
S11300200C9446000C9446000C9446000C94460034
S11300300C9446000C9446000C9446000C94460024
S11300400C9446000C9446000C945D030C944600FA
S11300500C9446000C9468020C9446000C944600E0
S11300600C9446000C94460011241FBECFEFD8E038
S1130070DEBFCDBF21E0A0E0B1E001C01D92A231FE
S1130080B207E1F70E94B6000C949B060C940000A2
S1130090ECE7F0E01082808180648083808180625C
S11300A08083808187608083EAE7F0E0108280812A
S11300B0836080838081886880838081806480837A
S11300C00895F894F999FECF72BD61BD80BD8FB3D8
S11300D084608FBB8FB382608FBB789408952FB3F5
S11300E092BD81BD8FB381608FBB80B50895F894B4
S11300F0E1E6F0E080E8808384E0808343EC59E02B
S113010068E070E080E00E940A0443EC59E068E093
S113011070E080E00E94630460E470E080E00E948C
S1130120C60460E470E080E00E942E050E9448004E
S11301300E949C0517B888B18E6088B9E8E6F0E0A3
S1130140808182608083ECE6F0E080818E60808331
S113015084B1816084B98AB180688AB98AB18065C2
S11301608AB91BB810920601789408950E9477000A
S113017080910101811130C08BB180688BB985B148
S11301808E7F85B980910401909105018430910599
S113019089F018F4892B39F0EBCF8830910589F078
S11301A00C97B1F0E5CF8BB18F7E8BB98BB18F7B80
S11301B08BB9DECF8BB180618BB98BB18F7B8BB95F
S11301C0D7CF8BB18F7E8BB98BB180648BB9D0CFF5
S11301D08BB180658BB9CCCF813081F58BB18F77B2
S11301E08BB985B1816085B9809102019091030139
S11301F08430910589F018F4892B39F0B9CF88300F
S1130200910589F00C97B1F0B3CF8BB18F7E8BB988
S11302108BB18F7B8BB9ACCF8BB180618BB98BB138
S11302208F7B8BB9A5CF8BB18F7E8BB98BB180645B
S11302308BB99ECF8BB180658BB99ACF823009F090
S113024097CF8BB180688BB985B1816085B990CF28
S11302501F920F920FB60F921124CF92DF92EF925A
S1130260FF920F931F932F933F934F935F936F933B
S11302707F938F939F93AF93BF93CF93EF93FF930A
S113028086B181FD0BC080910101823019F4109276
S1130290010106C18F5F8093010102C182FDD5C0B7
S11302A080910101811127C06091040170910501C1
S11302B080910D010E94610060910401709105011B
S11302C06F5F7F4F809111010E9461006091040172
S11302D0709105016E5F7F4F80910C010E94610057
S11302E060910401709105016D5F7F4F80910E0153
S11302F00E946100D5C0813009F0D2C08091020112
S1130300909103010E946F00C82F282F30E0A5E7C9
S1130310B0E00E941D06C12CD12C7601CA94A7011D
S113032096010E94FB05C90189549F4F0E94BC0499
S113033081E40E94B5058C2F0E94CF058AE00E94BB
S1130340B505809102019091030101960E946F000E
S1130350C82F282F30E0AAE7B0E00E941D06A701AD
S113036096010E94FB05C901CC960E94C10482E457
S11303700E94B5058C2F90E00E946F000E94CF056B
S11303808AE00E94B50580910201909103010296D2
S11303900E946F00C82F482F50E060E070E0DB013E
S11303A0CA01880F991FAA1FBB1F880F991FAA1F74
S11303B0BB1F880F991FAA1FBB1F8C019D01041B23
S11303C0150B260B370BC901B801660F771F881F61
S11303D0991F660F771F881F991FA70196010E9416
S11303E0FB0587E0820F0E94960583E40E94B50511
S11303F08C2F0E94CF058AE00E94B50580910201EE
S11304009091030103960E946F00C82F90E0A0E032
S1130410B0E0BC01CD01660F771F881F991F660FDE
S1130420771F881F991FA70196010E94FB0580E290
S1130430820F0E94990584E40E94B5058C2F0E94C6
S1130440CF058AE00E94B5052BC083FD29C08091A9
S11304500101811112C080910401909105018C3039
S1130460910529F4109205011092040119C0049613
S1130470909305018093040113C0813089F4809125
S11304800201909103018C30910529F4109203012B
S11304901092020105C00496909303018093020117
S11304A0FF91EF91CF91BF91AF919F918F917F91E8
S11304B06F915F914F913F912F911F910F91FF90F9
S11304C0EF90DF90CF900F900FBE0F901F90189574
S11304D01F920F920FB60F9211240F931F932F9315
S11304E03F934F935F936F937F938F939F93AF93B8
S11304F0BF93EF93FF9380910601811127C0209150
S1130500790020930D0130E0A5E7B0E00E941D06BC
S11305102FEF30E040E050E00E94FB0529543F4FAC
S11305203093100120930F0180910101811103C0C8
S1130530C9010E94BC0486E680937C0081E080931C
S1130540060185E38A95F1F700009FC0813039F5F3
S1130550209179002093110130E0AAE7B0E00E94D5
S11305601D062FEF30E040E050E00E94FB05245CC4
S11305703F4F3093100120930F01809101018111AD
S113058003C0C9010E94C10485E680937C0082E017
S11305908093060185E38A95F1F7000076C08230E6
S11305A009F043C04091790040930C0150E060E0B1
S11305B070E0DB01CA01880F991FAA1FBB1F880FB7
S11305C0991FAA1FBB1F880F991FAA1FBB1F8C014D
S11305D09D01041B150B260B370BC901B801660FCF
S11305E0771F881F991F660F771F881F991F2FEF8A
S11305F030E040E050E00E94FB05295F3F4F30931C
S1130600100120930F0180910101811103C0822FF9
S11306100E94960584E680937C0083E08093060123
S113062085E38A95F1F7000030C0833071F560915D
S1130630790060930E01862F90E0A0E0B0E0BC0149
S1130640CD01660F771F881F991F660F771F881FBC
S1130650991F2FEF30E040E050E00E94FB05205E40
S11306603F4F3093100120930F01809101018111BC
S113067003C0822F0E94990587E680937C00109224
S1130680060185E38A95F1F70000EAE7F0E080814E
S113069080648083FF91EF91BF91AF919F918F917F
S11306A07F916F915F914F913F912F911F910F9186
S11306B00F900FBE0F901F9018951F920F920FB6B8
S11306C00F9211242F933F934F935F936F937F93D4
S11306D08F939F93AF93BF93EF93FF939091C60033
S11306E09A3009F07CC0E0910001F0E0E95FFE4F30
S11306F010821092000188E091E00E9440069C0163
S113070090910701933489F128F4913449F092349B
S1130710D1F06FC09434D9F1953409F44BC069C059
S113072080910101823009F064C045E7249FC00133
S113073011246FEF70E00E94E705CB0189549F4FAD
S11307400E94BC0456C080910101823009F051C05E
S11307504AE7249FC00111246FEF70E00E94E7056F
S1130760CB01CC960E94C10444C080910101823027
S113077009F03FC04CE1249FC00111246FEF70E0E9
S11307800E94E70587E0860F0E94960532C080919B
S11307900101823071F5C9019927880F991F880FCB
S11307A0991F6FEF70E00E94E70580E2860F0E94B8
S11307B099051FC033272230310549F02330310514
S11307C051F021303105A9F41092010112C081E0E9
S11307D0809301010EC082E0809301010AC08091E0
S11307E00001E82FF0E0E95FFE4F90838F5F809374
S11307F00001FF91EF91BF91AF919F918F917F91F4
S11308006F915F914F913F912F910F900FBE0F9079
S11308101F90189594B1926094B9509387004093B7
S11308208600E0E8F0E090819F739083882321F0B4
S11308308081806C808305C0E0E8F0E0808180687E
S11308408083E0E8F0E0808182608083E1E8F0E08A
S1130850108280818861808360347105E1F038F40E
S11308606130710561F06830710579F026C0611559
S113087081E07807B1F061157440C9F01EC0E1E869
S1130880F0E08081816080830895E1E8F0E0808178
S1130890826080830895E1E8F0E080818360808352
S11308A00895E1E8F0E08081846080830895E1E8C0
S11308B0F0E08081856080830895E1E8F0E0808144
S11308C081608083089594B1946094B950938700B3
S11308D040938600E0E8F0E090819F7C9083882339
S11308E021F080818063808305C0E0E8F0E08081AE
S11308F080628083E0E8F0E0808182608083E1E8C8
S1130900F0E0108280818861808360347105E1F0B9
S113091038F46130710561F06830710579F026C0F2
S1130920611581E07807B1F061157440C9F01EC00B
S1130930E1E8F0E08081816080830895E1E8F0E0FF
S11309408081826080830895E1E8F0E080818360A3
S113095080830895E1E8F0E08081846080830895D5
S1130960E1E8F0E08081856080830895E1E8F0E0CB
S113097080818160808308959093890080938800AA
S1130980089590938B0080938A00089594B19860A1
S113099094B9E0EBF0E090819F739083882321F079
S11309A08081806C808305C0E0EBF0E0808180680A
S11309B08083E0EBF0E0808183608083E1EBF0E012
S11309C08081877F808310826034710549F150F4FF
S11309D068307105C9F060327105E1F0613071056C
S11309E0B9F50CC0611581E0780731F1611584E037
S11309F0780741F16038710559F518C0E1EBF0E072
S1130A008081816080830895E1EBF0E080818260E1
S1130A1080830895E1EBF0E0808183608083089512
S1130A20E1EBF0E08081846080830895E1EBF0E005
S1130A308081856080830895E1EBF0E080818660A9
S1130A4080830895E1EBF0E08081876080830895DE
S1130A50E1EBF0E080818160808308959AB1986031
S1130A609AB9E0EBF0E090819F7C9083882321F099
S1130A7080818063808305C0E0EBF0E08081806248
S1130A808083E0EBF0E0808183608083E1EBF0E041
S1130A908081877F808310826034710549F150F42E
S1130AA068307105C9F060327105E1F0613071059B
S1130AB0B9F50CC0611581E0780731F1611584E066
S1130AC0780741F16038710559F518C0E1EBF0E0A1
S1130AD08081816080830895E1EBF0E08081826011
S1130AE080830895E1EBF0E0808183608083089542
S1130AF0E1EBF0E08081846080830895E1EBF0E035
S1130B008081856080830895E1EBF0E080818660D8
S1130B1080830895E1EBF0E080818760808308950D
S1130B20E1EBF0E080818160808308958093B300DD
S1130B3008958093B40008958AB18E7F8AB98AB1EA
S1130B4082608AB9E0ECF0E0108280818260808368
S1130B5088E98093C10086E08093C2008CE090E035
S1130B609093C5008093C40008959091C00095FFB0
S1130B70FCCF8093C60008950F931F93CF938C01ED
S1130B80C0E003C00E94B505CF5FF801EC0FF11D72
S1130B9080818111F7CFCF911F910F910895CF9349
S1130BA0DF9300D000D0CDB7DEB74AE0BE016F5F5F
S1130BB07F4F90E00E945E06CE0101960E94BC0524
S1130BC00F900F900F900F90DF91CF91089597FBA6
S1130BD0072E16F4009407D077FD09D00E942C0646
S1130BE007FC05D03EF4909581959F4F089570952C
S1130BF061957F4F0895A1E21A2EAA1BBB1BFD012C
S1130C000DC0AA1FBB1FEE1FFF1FA217B307E407E7
S1130C10F50720F0A21BB30BE40BF50B661F771F3F
S1130C20881F991F1A9469F760957095809590951F
S1130C309B01AC01BD01CF010895A29FB001B39FF8
S1130C40C001A39F700D811D1124911DB29F700DD1
S1130C50811D1124911D0895AA1BBB1B51E107C0DE
S1130C60AA1FBB1FA617B70710F0A61BB70B881F38
S1130C70991F5A95A9F780959095BC01CD010895C7
S1130C80FC0188279927E89421912032E9F329303F
S1130C9010F02E30C8F32B3241F02D3239F4689421
S1130CA004C00E946906820F911D219120532A30AD
S1130CB0C0F31EF4909581959F4F0895BB274A3049
S1130CC031F4992322F4BDE2909581959F4F0C94C1
S1130CD072067AE0979F902D879F802D910D1124A5
S1130CE00895BB27FB015527AA27880F991FAA1F20
S1130CF0A41710F0A41B83955051B9F7A05DAA3333
S1130D0008F0A95DA193009779F7B111B1931192FD
S1130D10CB010C948B06DC01FC01672F71917723C6
S1130D20E1F7329704C07C916D9370836291AE17A2
S10D0D30BF07C8F30895F894FFCF3D
S9030000FC
