:100000000C9434000C9449000C9449000C94490061
:100010000C9449000C9449000C9449000C9449003C
:100020000C9449000C9449000C9449000C9449002C
:100030000C9449000C9449000C9449000C9449001C
:100040000C9449000C9449000C9471000C944900E4
:100050000C9449000C9449000C9449000C944900FC
:100060000C9449000C94490011241FBECFEFD8E036
:10007000DEBFCDBF11E0A0E0B1E0E2E4F1E002C0FC
:1000800005900D92A631B107D9F70E9498000C9403
:100090009F000C9400008AB182608AB98AB18160A5
:1000A0008AB91092C00088E98093C10086E08093ED
:1000B000C20087E690E09093C5008093C400089545
:1000C000F8940E944B008FEF84B915B887B918B81F
:1000D000789408959091C00095FFFCCF8093C6005E
:1000E00008951F920F920FB60F9211248F93809153
:1000F000C60085B9829586958695837088B98F915B
:100100000F900FBE0F901F9018950F931F93CF93D2
:100110008C01C0E003C00E946A00CF5FF801EC0FC1
:10012000F11D80818111F7CFCF911F910F9108951B
:100130000E94600080E091E00E948500FFCFF8946B
:02014000FFCFEF
:10014200486F6C61206D756E646F20636F6D6F20F8
:06015200657374616E008C
:00000001FF
