:100000000C9434000C9446000C9446000C9446006A
:100010000C9446000C9446000C9446000C94460048
:100020000C9446000C94F8000C9446000C94460086
:100030000C9446000C9446000C9446000C94460028
:100040000C9446000C9446000C9446000C94460018
:100050000C9446000C9486000C9446000C944600C8
:100060000C9446000C94460011241FBECFEFD8E03C
:10007000DEBFCDBF21E0A0E0B1E001C01D92A53000
:10008000B207E1F70E9483000C9489020C940000EF
:10009000ECE7F0E010828081806480838081806260
:1000A0008083808187608083EAE7F0E0108280812E
:1000B0008360808380818868808380818062808380
:1000C0008081806480830895F894E1E6F0E080E820
:1000D000808384E080830E94480044EC59E068E01B
:1000E00070E080E00E941C0144EC59E068E070E0A0
:1000F00080E00E947A0181E090E00E94D801109295
:100100000101789408950E946400FFCF1F920F921E
:100110000FB60F9211242F933F934F935F936F93DA
:100120007F938F939F93AF93BF93CF93EF93FF935F
:10013000C09179002C2F30E0ABEEB0E00E94660257
:100140002FEF30E040E050E00E9444022F5B3F4F31
:1001500030930401209303018091010181110EC0AD
:10016000C9010E94750186E680937C0081E080933E
:10017000010125E32A95F1F7000023C0813071F4D5
:10018000C9010E94D30185E680937C0082E08093C0
:10019000010185E38A95F1F7000013C029E1C29FB0
:1001A000C00111246FEF70E00E94300260930201E1
:1001B00087E680937C001092010185E38A95F1F730
:1001C0000000EAE7F0E0808180648083FF91EF9196
:1001D000CF91BF91AF919F918F917F916F915F91DF
:1001E0004F913F912F910F900FBE0F901F90189538
:1001F0001F920F920FB60F9211248F939F938091AD
:1002000000018F5F8093000190910201891720F413
:100210008BB184608BB903C08BB18B7F8BB980911C
:100220000001893111F4109200019F918F910F907C
:100230000FBE0F901F90189594B1926094B950938F
:10024000870040938600E0E8F0E090819F73908300
:10025000882321F08081806C808305C0E0E8F0E095
:10026000808180688083E0E8F0E080818260808324
:10027000E1E8F0E01082808188618083603471055C
:10028000E1F038F46130710561F06830710579F0A2
:1002900026C0611581E07807B1F061157440C9F09E
:1002A0001EC0E1E8F0E08081816080830895E1E88C
:1002B000F0E08081826080830895E1E8F0E0808151
:1002C000836080830895E1E8F0E08081846080832A
:1002D0000895E1E8F0E08081856080830895E1E899
:1002E000F0E08081816080830895909389008093FD
:1002F0008800089594B1946094B950938700409316
:100300008600E0E8F0E090819F7C9083882321F0D4
:1003100080818063808305C0E0E8F0E080818062B6
:100320008083E0E8F0E0808182608083E1E8F0E0B3
:10033000108280818861808360347105E1F038F437
:100340006130710561F06830710579F026C0611582
:1003500081E07807B1F061157440C9F01EC0E1E892
:10036000F0E08081816080830895E1E8F0E08081A1
:10037000826080830895E1E8F0E08081836080837B
:100380000895E1E8F0E08081846080830895E1E8E9
:10039000F0E08081856080830895E1E8F0E080816D
:1003A00081608083089590938B0080938A000895E4
:1003B0002AB124602AB92BB12B7F2BB91092B0003F
:1003C0001092B1008034910541F148F488309105D4
:1003D000C1F080329105D9F00197B9F50CC08115B3
:1003E00021E0920731F1811524E0920741F1803834
:1003F000910559F518C0E1EBF0E0808181608083C0
:1004000029C0E1EBF0E080818260808323C0E1EBD2
:10041000F0E08081836080831DC0E1EBF0E08081AB
:100420008460808317C0E1EBF0E080818560808389
:1004300011C0E1EBF0E08081866080830BC0E1EBCE
:10044000F0E080818760808305C0E1EBF0E080818F
:10045000826080831092B20081E0809370000895E2
:1004600097FB072E16F4009407D077FD09D00E9461
:10047000750207FC05D03EF4909581959F4F089535
:10048000709561957F4F0895A1E21A2EAA1BBB1BA0
:10049000FD010DC0AA1FBB1FEE1FFF1FA217B30750
:1004A000E407F50720F0A21BB30BE40BF50B661F66
:1004B000771F881F991F1A9469F76095709580952A
:1004C00090959B01AC01BD01CF010895A29FB001A1
:1004D000B39FC001A39F700D811D1124911DB29F78
:1004E000700D811D1124911D0895AA1BBB1B51E1A4
:1004F00007C0AA1FBB1FA617B70710F0A61BB70B94
:10050000881F991F5A95A9F780959095BC01CD0138
:060510000895F894FFCFEE
:00000001FF
