S01700004763634170706C69636174696F6E312E737265635B
S11300000C9434000C9446000C9446000C94460066
S11300100C9446000C9446000C9446000C94460044
S11300200C9446000C9446000C9446000C94460034
S11300300C9446000C9446000C9446000C94460024
S11300400C9446000C9446000C9446000C94460014
S11300500C9446000C9476000C9446000C944600D4
S11300600C9446000C94460011241FBECFEFD8E038
S1130070DEBFCDBF21E0A0E0B1E001C01D92A230FF
S1130080B207E1F70E9473000C9441010C94000044
S1130090ECE7F0E01082808180648083808180625C
S11300A08083808187608083EAE7F0E0108280812A
S11300B0836080838081886880838081806480837A
S11300C00895F894E1E6F0E080E8808384E080839A
S11300D044EC59E068E070E080E00E94B2000E94C5
S11300E04800789408950E946100FFCF1F920F92F8
S11300F00FB60F9211242F933F934F935F936F93F7
S11301007F938F939F93AF93BF93EF93FF9320912C
S1130110790030E0ADEEB0E00E9432012FEF30E024
S113012040E050E00E941001C901CF969093010174
S1130130809300010E940B01EAE7F0E08081806473
S11301408083FF91EF91BF91AF919F918F917F91A8
S11301506F915F914F913F912F910F900FBE0F9030
S11301601F90189594B1926094B95093870040936E
S11301708600E0E8F0E090819F739083882321F06B
S11301808081806C808305C0E0E8F0E08081806835
S11301908083E0E8F0E0808182608083E1E8F0E041
S11301A0108280818861808360347105E1F038F4C5
S11301B06130710561F06830710579F026C0611510
S11301C081E07807B1F061157440C9F01EC0E1E820
S11301D0F0E08081816080830895E1E8F0E080812F
S11301E0826080830895E1E8F0E080818360808309
S11301F00895E1E8F0E08081846080830895E1E877
S1130200F0E08081856080830895E1E8F0E08081FA
S11302108160808308959093890080938800089575
S1130220A1E21A2EAA1BBB1BFD010DC0AA1FBB1FF6
S1130230EE1FFF1FA217B307E407F50720F0A21B68
S1130240B30BE40BF50B661F771F881F991F1A94D5
S113025069F760957095809590959B01AC01BD01FF
S1130260CF010895A29FB001B39FC001A39F700D59
S1130270811D1124911DB29F700D811D1124911DAA
S10902800895F894FFCF7D
S9030000FC
