:020000020000FC
:040000000C9422003A
:04000C000C947C00D4
:100040000C9498000FEF0DBF08E00EBFF89400E885
:100050000093610004E00093610001E000936800F8
:1000600003E000936B0003E005BD02EB06BD01E079
:1000700000936E000FEF07B90FEF0AB900E004B963
:100080000FEF05B9B1E0A0E00EE70D9300E30D938B
:100090000DE60D9309E70D9303E30D930BE50D9327
:1000A0000FE50D9300E70D930FE70D930BE70D930D
:1000B000B1E0A0E0F1E0E0E05C915BB9608140E09C
:1000C00010E048B900E108B978941A3FF1F7112718
:1000D0000E946B00FACF5B3719F05D915C91089537
:1000E000B1E0A0E05C916B3519F0619160810895F9
:1000F000F1E0E0E060810895D89A0F930FB70F9375
:1001000003B100FD06C04F3011F0439509C040E037
:1001100007C001FD05C0403011F04A9501C04FE015
:1001200008B10073042B08B90F910FBF0F911895F8
:100130000F932F930FB70F9302EB06BD139500E0BB
:100140000BB908B104FF01C05BB905FD6BB920E331
:0E015000022708B92F910F910FBF0F9118953C
:00000001FF
