:100000000C9434000C9451000C9451000C94510049
:100010000C9451000C9451000C9451000C9451001C
:100020000C9451000C9451000C9451000C9451000C
:100030000C9451000C9451000C9451000C945100FC
:100040000C9451000C9451000C9410010C9451002C
:100050000C9451000C9457010C9451000C945100D5
:100060000C9451000C94510011241FBECFEFD8E026
:10007000DEBFCDBF11E0A0E0B1E0EEE4F3E002C0EE
:1000800005900D92A23CB107D9F721E0A2ECB1E0B6
:1000900001C01D92A63CB207E1F70E94DB000C9460
:1000A000A5010C9400008AB182608AB98AB181608E
:1000B0008AB91092C00088E98093C10086E08093DD
:1000C000C20087E690E09093C5008093C400089535
:1000D000ECE7F0E010828081806480838081806220
:1000E0008083808187608083EAE7F0E010828081EE
:1000F000836080838081886880838081806480833E
:100100000895F8940E9453000E9468008FEF84B90C
:1001100015B88FE087B987B18F7B87B918B810926F
:10012000C2011092C3011092C501E1E6F0E08081A6
:1001300084688083789408959091C00095FFFCCFE7
:100140008093C60008950F931F93CF938C01C0E056
:1001500003C00E949C00CF5FF801EC0FF11D80816D
:100160008111F7CFCF911F910F910895CF93DF9316
:1001700000D000D0CDB7DEB74AE0BE016F5F7F4F41
:1001800090E00E947001CE0101960E94A3000F90A2
:100190000F900F900F90DF91CF91089580E091E044
:1001A0000E94A30085E291E00E94A3008EE391E00B
:1001B0000E94A30008950E9481000E94CE008091B9
:1001C000C3018823E1F38091C201813319F08233A6
:1001D00091F019C08FE491E00E94A3008091C401C6
:1001E0000E94B60089E691E00E94A3000E94CE0022
:1001F0001092C50110C08CE691E00E94A30081E03E
:100200008093C50108C089E891E00E94A3000E9484
:10021000CE001092C5011092C2011092C301CFCF3F
:100220001F920F920FB60F9211242F933F934F936B
:100230005F936F937F938F939F93AF93BF93CF936E
:10024000EF93FF93C091C6008091C501811106C054
:10025000C093C20181E08093C30117C08130A9F42B
:100260008EEA91E00E94A3008C2F0E949C00C5B9E9
:10027000C295C695C695C370C8B98AE691E00E943A
:10028000A3000E94CE001092C501FF91EF91CF9183
:10029000BF91AF919F918F917F916F915F914F919E
:1002A0003F912F910F900FBE0F901F9018951F92A6
:1002B0000F920FB60F9211248F93EF93FF938091BB
:1002C00079008093C401EAE7F0E080818064808354
:1002D000FF91EF918F910F900FBE0F901F90189587
:1002E000BB274A3031F4992322F4BDE290958195E1
:1002F0009F4F0C947C01BB27FB015527AA27880F31
:10030000991FAA1FA41710F0A41B83955051B9F789
:10031000A05DAA3308F0A95DA193009779F7B11108
:10032000B1931192CB010C949501DC01FC01672F74
:1003300071917723E1F7329704C07C916D937083BC
:0E0340006291AE17BF07C8F30895F894FFCF7F
:10034E0053656C656363696F6E6520756E612064BD
:10035E0065206C617320646F73206F7063696F6EBC
:10036E006573200A004C65657220706F74656E634C
:10037E00696F6D6574726F20283129200A00456EF1
:10038E00766961722041534349202832290A004C74
:10039E006579656E646F20706F74656E63696F6DDD
:1003AE006574726F2E2E2E0A000A0A00496E67724D
:1003BE006573652073752063617261637465722065
:1003CE0041534349493A200A004F706369F36E2046
:1003DE006E6F2076E16C6964612E20496E74656ED5
:1003EE007465206465206E7565766F2E0A00436114
:1003FE0072616374657220726563696269646F3AD3
:02040E002000CC
:00000001FF
